:100000000C942D000C94A6000C94A6000C94A60051
:100010000C94A6000C94A6000C94A6000C94A600C8
:100020000C94A6000C94A6000C94A6000C94A600B8
:100030000C94A6000C94A6000C94A6000C94A600A8
:100040000C94A6000C94A6000C94A6000C94A60098
:100050000C94A60000600061800011241FBECFE553
:10006000D8E0DEBFCDBFE4E5F0E040E017C0B591D9
:10007000A59135912591059107FD0CC0959185912C
:10008000EF01F92FE82F05900D92A217B307D9F7CA
:10009000FE0104C01D92A217B307E1F7E935F4078A
:0E00A00031F70E9457000C945500F894FFCFE2
:1000AE0081E090E00E9494000E949D000E94A200B8
:1000BE00809360008F3429F480E090E00E948900E4
:1000CE00F5CF863429F480E090E00E947D00EECFDB
:1000DE00893529F481E090E00E948900E7CF8E34C3
:0C00EE0029F781E090E00E947D00E0CF47
:1000FA0095B321E030E002C0220F331F8A95E2F760
:08010A002095292325BB08956F
:1001120095B321E030E002C0220F331F8A95E2F747
:06012200292B25BB089506
:10012800009729F0019721F48FEF84BB089514BA42
:02013800089528
:0A013A00BE9A8DB183648DB908955B
:08014400779BFECF8FB10895F7
:04014C000C9400000F
:00000001FF
